:100000000C9462000C948A000C948A000C948A0070
:100010000C948A000C948A000C948A000C948A0038
:100020000C948A000C948A000C948A000C948A0028
:100030000C948A000C948A000C948A000C948A0018
:100040000C946F030C948A000C94DF030C94B90396
:100050000C948A000C948A000C948A000C948A00F8
:100060000C948A000C948A000000000023002600F3
:10007000290000000008000201000003040700003E
:1000800000000000000000000000250028002B00F8
:1000900000000000240027002A00040404040404D3
:1000A0000404020202020202030303030303010227
:1000B00004081020408001020408102001020408F6
:1000C0001020110411241FBECFEFD8E0DEBFCDBF3A
:1000D00011E0A0E0B1E0E4E8FBE102C005900D9280
:1000E000A631B107D9F722E0A6E1B1E001C01D9227
:1000F000A13DB207E1F710E0C2E6D0E004C02197CD
:10010000FE010E94830BC136D107C9F70E94690422
:100110000C94C00D0C94000090E0FC01E255FF4FE0
:10012000249186569F4FFC018491882399F090E09A
:10013000880F991FFC01E057FF4FA591B491FC0176
:10014000EA57FF4F859194918FB7F894EC91E22B89
:10015000EC938FBF0895833081F028F4813099F0BB
:100160008230A9F008958730A9F08830C9F0843032
:10017000B1F4809180008F7D03C0809180008F77E3
:1001800080938000089584B58F7784BD089584B5E9
:100190008F7DFBCF8091B0008F778093B000089562
:1001A0008091B0008F7DF9CF1F93CF93DF93282FDD
:1001B00030E0F901EE58FF4F8491F901E255FF4F0D
:1001C000D491F901E656FF4FC491CC23A9F0162F24
:1001D00081110E94AB00EC2FF0E0EE0FFF1FEA57F9
:1001E000FF4FA591B4918FB7F894EC91111108C00D
:1001F000D095DE23DC938FBFDF91CF911F910895BF
:10020000DE2BF8CF3FB7F8948091D5019091D601BD
:10021000A091D701B091D80126B5A89B05C02F3F6A
:1002200019F00196A11DB11D3FBFBA2FA92F982F1C
:100230008827BC01CD01620F711D811D911D42E017
:10024000660F771F881F991F4A95D1F708958F92DF
:100250009F92AF92BF92CF92DF92EF92FF924B01AB
:100260005C010E9402016B017C010E9402016C1979
:100270007D098E099F09683E734081059105A8F3A9
:1002800021E0821A9108A108B10888EEC80E83E027
:10029000D81EE11CF11C81149104A104B10429F7BA
:1002A000FF90EF90DF90CF90BF90AF909F908F9096
:1002B0000895AF92BF92CF92DF92EF92FF920F9389
:1002C0001F93CF93DF936C017B018B01040F151FEC
:1002D000EB015E01AE18BF08C017D10759F0699154
:1002E000D601ED91FC910190F081E02DC6010995B8
:1002F000892B79F7C501DF91CF911F910F91FF9065
:10030000EF90DF90CF90BF90AF900895FC01538D98
:10031000448D252F30E0842F90E0821B930B5417DF
:1003200010F0CF96089501970895FC01918D828D6C
:10033000981761F0A28DAE0FBF2FB11D5D968C9105
:10034000928D9F5F9F73928F90E008958FEF9FEF44
:100350000895FC01918D828D981731F0828DE80F00
:10036000F11D858D90E008958FEF9FEF0895FC01BA
:10037000918D228D892F90E0805C9F4F821B910987
:100380008F739927089589ED91E00E94B70121E0CC
:10039000892B09F420E0822F089580E090E0892BDA
:1003A00029F00E94C30181110C9400000895FC0102
:1003B000A48DA80FB92FB11DA35ABF4F2C91848DC6
:1003C00090E001968F739927848FA689B7892C9323
:1003D000A089B1898C91837080648C93938D848D76
:1003E000981306C00288F389E02D80818F7D808379
:1003F0000895EF92FF920F931F93CF93DF93EC0139
:1004000081E0888F9B8D8C8D98131AC0E889F989BB
:10041000808185FF15C09FB7F894EE89FF896083BE
:10042000E889F98980818370806480839FBF81E03F
:1004300090E0DF91CF911F910F91FF90EF90089581
:10044000F62E0B8D10E00F5F1F4F0F731127E02E5C
:100450008C8D8E110CC00FB607FCFACFE889F98994
:10046000808185FFF5CFCE010E94D701F1CFEB8DC2
:10047000EC0FFD2FF11DE35AFF4FF0829FB7F89468
:100480000B8FEA89FB8980818062CFCFCF93DF9386
:10049000EC01888D8823B9F0AA89BB89E889F9899C
:1004A0008C9185FD03C0808186FD0DC00FB607FCD1
:1004B000F7CF8C9185FFF2CF808185FFEDCFCE0104
:1004C0000E94D701E9CFDF91CF910895FF920F935A
:1004D0001F93CF93DF93F82EC0911801C23020F004
:1004E00061E08C2F0E94D4008BEC97E00197F1F72C
:1004F00008E311E0D0E08091000190910101DF1547
:1005000039F0F80161918F010E94F901DF5FF3CFAB
:100510000E94460280911601909117018230910548
:1005200038F0880F991F880F991F05970197F1F7E9
:10053000C23048F060E08C2FDF91CF911F910F9176
:10054000FF900C94D400DF91CF911F910F91FF90F9
:100550000895E8E3F1E090E02FEF3FEF981791F076
:100560004191242748E0B901617077273695279596
:10057000672B21F051E0252750EA3527415099F7A4
:100580009F5FECCF922F832F0895209134013091FB
:1005900035012F5F3F4F3093350120933401909107
:1005A0003001911115C090913301909338019091D1
:1005B0002F0190689093390180933A0183E00E9463
:1005C000A90290933B0180933C0185E00C94660264
:1005D00008950C946D0B8091190190911A01892B4B
:1005E000B1F060EB90E080E00E94750B64E170E098
:1005F00080E090E00E94270188E198E00FB6F8942F
:10060000A895809360000FBE90936000FFCF08957F
:10061000FF920F931F93CF93DF93EC01F62E088187
:100620001981C8010E946D0BF81621F06F2DC801C9
:100630000E94750BCE01DF91CF911F910F91FF901A
:1006400008950F931F93CF93DF9300D0CDB7DEB7FC
:10065000182F85E090E09A838983612FCE0101965F
:100660000E940803012F009586E090E09A83898319
:10067000602FCE0101960E94080385E090E00E9461
:10068000E90281130EC086E090E00E94E90208139F
:1006900008C081E00F900F90DF91CF911F910F91D3
:1006A00008958FEFF7CF806480937C0080917A006B
:1006B000806480937A0080917A0084FFFCCF8091DF
:1006C0007A00806180937A008FE99FE00197F1F7CB
:1006D00000C00000809178009091790008951F92E9
:1006E0000F920FB60F9211242F933F938F939F93E6
:1006F000AF93BF938091D1019091D201A091D3018A
:10070000B091D4013091D00123E0230F2D3758F55B
:100710000196A11DB11D2093D0018093D10190932A
:10072000D201A093D301B093D4018091D5019091CF
:10073000D601A091D701B091D8010196A11DB11D9C
:100740008093D5019093D601A093D701B093D8019F
:10075000BF91AF919F918F913F912F910F900FBEBD
:100760000F901F90189526E8230F0296A11DB11D2A
:10077000D2CF1F920F920FB60F9211242F933F9357
:100780004F935F936F937F938F939F93AF93BF9399
:10079000EF93FF9389ED91E00E94D701FF91EF91D4
:1007A000BF91AF919F918F917F916F915F914F9189
:1007B0003F912F910F900FBE0F901F9018951F9291
:1007C0000F920FB60F9211242F938F939F93EF9355
:1007D000FF93E091E901F091EA018081E091EF015E
:1007E000F091F00182FD1BC090818091F2018F5F3A
:1007F0008F732091F301821741F0E091F201F0E054
:10080000E752FE4F958F8093F201FF91EF919F91F8
:100810008F912F910F900FBE0F901F901895808190
:10082000F4CFE9EDF1E01382128288EE93E0A0E0CC
:10083000B0E084839583A683B78388E091E09183B9
:10084000808385EC90E09587848784EC90E097879F
:10085000868780EC90E0918B808B81EC90E0938B8D
:10086000828B82EC90E0958B848B86EC90E0978B6A
:10087000868B118E128E138E148EE6E7F2E084E0E2
:10088000808392E0918396E092838383148285E053
:100890008583178216821086EFE7F2E082E2DF019D
:1008A0001D928A95E9F7E1EAF2E080E2DF011D920C
:1008B0008A95E9F788E0E1ECF2E0DF01982F1D92DC
:1008C0009A95E9F7E9ECF2E0DF011D928A95E9F7E4
:1008D0000895CF93DF9300D000D000D0CDB7DEB71E
:1008E000789484B5826084BD84B5816084BD85B50B
:1008F000826085BD85B5816085BD80916E00816017
:1009000080936E00109281008091810082608093BC
:1009100081008091810081608093810080918000BE
:100920008160809380008091B10084608093B100E9
:100930008091B00081608093B00080917A008460E3
:1009400080937A0080917A00826080937A0080910F
:100950007A00816080937A0080917A008068809329
:100960007A001092C10087E00E948C0086E00E940D
:100970008C0060E087E00E94D40060E086E00E9486
:10098000D40086E792E090931A018093190181E0E8
:1009900090E00E94E902182F84E090E00E94E902B2
:1009A000082F83E090E00E94E902853A09F005C132
:1009B0008FEF810F873F08F000C1812F80950813CA
:1009C000FCC010937B0281E080937E0280917B02C9
:1009D000282F30E03093800220937F022BEE32E00C
:1009E0003093320120933101C0907A02D12CA09033
:1009F0007902B12C80907802912C0091770210E05E
:100A00000F5F1F4FF09076028093330189ED91E0E4
:100A10009093010180930001E091E901F091EA01D6
:100A200082E08083E091E501F091E6011082E0919F
:100A3000E701F091E80183E380831092F101E091F6
:100A4000ED01F091EE0186E08083E091EB01F09101
:100A5000EC01808180618083E091EB01F091EC01F9
:100A6000808188608083E091EB01F091EC018081CE
:100A700080688083E091EB01F091EC0180818F7DB3
:100A8000808321E02F1548F4F09218018F2D0E94E9
:100A90008C0060E08F2D0E94D4008EEE92E0909347
:100AA00037018093360186ED96E09093170180938D
:100AB000160110931E0100931D0190921C0180925B
:100AC0001B01B0922E01A0922D01D0922001C09264
:100AD0001F01109235011092340180917802882311
:100AE00071F022E030E03093A2022093A102823024
:100AF00030F08EE190E09093A4028093A302809165
:100B00007902882319F081E08093C10285E090E0AA
:100B10000E94E902182F86E090E00E94E9021F3F40
:100B200009F451C0912F909589134DC011160CF006
:100B30004AC0812F110F990B9093030180930201FA
:100B400085E00E948C0060E085E00E94D40080E493
:100B500080937C0080917A00846880937A001AE008
:100B600084E00E9453031150D9F7412C512C3201DB
:100B700043948FB7F894C090D101D090D201E09007
:100B8000D301F090D4018FBF80917B0290E09093CD
:100B9000800280937F02A12CB12C00910001109162
:100BA0000101C8010E94B7011C01892B69F1AA202B
:100BB00071F0C8010E949501F0CF85E080937B021F
:100BC00010927E0203CF82E00E942103B9CFAA24B3
:100BD000A39430E8B312A12CC8010E949501EB2D1B
:100BE000F0E0E85CFE4F8083B394809136019091F1
:100BF00037018230910588F2880F991F880F991F5D
:100C000005970197F1F7C9CFAA2009F4C3C28091D3
:100C10003401909135019C012F5F3F4F3093350196
:100C20002093340190937D0280937C028091810215
:100C300090918202803B954AA9F500917F02109124
:100C40008002C8010197873F910540F580917B02A2
:100C5000801721F18FEF800F873F00F500937B0213
:100C60000093330121E030E03A832983602FCE01E5
:100C700001960E94080344E050E05A834983602FA4
:100C80006095CE0101960E94080383E090E09A836C
:100C9000898365EACE0101960E94080310928202C0
:100CA00010928102809177028823E1F020918102E5
:100CB0003091820221313105A9F4823008F489C4CF
:100CC00080918302909184028093020190930301AA
:100CD0000E94210380917702882321F010928202E2
:100CE0001092810210917802133008F457C020E06E
:100CF00030E048EC52E46091B8017091B901809104
:100D0000BA019091BB010E94530D0E946D0C70932B
:100D1000A6026093A502143008F440C020E030E041
:100D200048EC52E46091BC017091BD018091BE011C
:100D30009091BF010E94530D0E946D0C7093A80208
:100D40006093A702153050F120E030E048EC52E407
:100D50006091C0017091C1018091C2019091C30165
:100D60000E94530D0E946D0C7093AA026093A90219
:100D70001630A0F020E030E048EC52E46091C4016D
:100D80007091C5018091C6019091C7010E94530DD9
:100D90000E946D0C7093AC026093AB02809179025B
:100DA000882309F49FC18091C102882309F49AC164
:100DB0008091CC019091CD01A091CE01B091CF0155
:100DC000B701A601481B590B6A0B7B0B209102014E
:100DD00030910301A8EEB3E02A9FC0012B9F900D34
:100DE0003A9F900D1124B0E0A0E0481759076A0718
:100DF0007B0708F477C1C092CC01D092CD01E0927C
:100E0000CE01F092CF0161E085E00E94D40062E360
:100E100070E080E090E00E94270184E00E9453038C
:100E2000BC01990F880B990B0E949E0C2AE038E2B6
:100E300040EA5BE30E94530D2BEA3AEA4AE850E4A9
:100E40000E94530D6093B8017093B9018093BA0169
:100E50009093BB0110E000E034E1A32EB12C80E0C0
:100E60000E945303081719070CF48C01B1E0AB1A68
:100E7000B108A9F783E00E9453039C838B83B801D8
:100E8000110F880B990B0E949E0C20E030EC4FE76D
:100E900054E40E94FB0B20E030E040EA50E40E9462
:100EA000530D4B015C010B811C81B801110F880BA4
:100EB000990B0E949E0C20E030EC4FE754E40E9416
:100EC000FB0B20E030E040EA50E40E94530D9B0110
:100ED000AC01C501B4010E94890B29E23CE54FE851
:100EE0005DE30E94FB0B4B015C0120E030E0A901B7
:100EF0000E944E0D18160CF06FC321EE3AE744E144
:100F00005FE3C501B4010E94890B4B015C0120E045
:100F100030E0A9010E94F60B87FD66C38092BC01F8
:100F20009092BD01A092BE01B092BF0110E000E01E
:100F300024E1A22EB12C81E00E9453030817190767
:100F40000CF48C0121E0A21AB108A9F783E00E94F9
:100F500053039C838B83B801110F880B990B0E945C
:100F60009E0C20E030EC4FE754E40E94FB0B20E0A5
:100F700030E040EA50E40E94530D4B015C010B81CC
:100F80001C81B801110F880B990B0E949E0C20E068
:100F900030EC4FE754E40E94FB0B20E030E040EAE5
:100FA00050E40E94530D9B01AC01C501B4010E94A5
:100FB000890B29E23CE54FE85DE30E94FB0B4B0106
:100FC0005C0120E030E0A9010E944E0D18160CF0E3
:100FD00014C321EE3AE744E15FE3C501B4010E9486
:100FE000890B4B015C0120E030E0A9010E94F60B67
:100FF00087FD0BC38092C0019092C101A092C201F3
:10100000B092C30110E000E094E1A92EB12C82E07F
:101010000E945303081719070CF48C0121E0A21A4F
:10102000B108A9F783E00E9453039C838B83B80126
:10103000110F880B990B0E949E0C20E030EC4FE7BB
:1010400054E40E94FB0B20E030E040EA50E40E94B0
:10105000530D4B015C010B811C81B801110F880BF2
:10106000990B0E949E0C20E030EC4FE754E40E9464
:10107000FB0B20E030E040EA50E40E94530D9B015E
:10108000AC01C501B4010E94890B29E23CE54FE89F
:101090005DE30E94FB0B4B015C0120E030E0A90105
:1010A0000E944E0D18160CF0B9C221EE3AE744E149
:1010B0005FE3C501B4010E94890B4B015C0120E094
:1010C00030E0A9010E94F60B87FDB0C28092C401F6
:1010D0009092C501A092C601B092C70160E085E080
:1010E0000E94D4008091C8019091C901A091CA01C9
:1010F000B091CB01A7019601281B390B4A0B5B0B62
:10110000DA01C901843F9140A105B10560F1C092A7
:10111000C801D092C901E092CA01F092CB01E9E77F
:10112000F0E08491E5EBF0E00491E1EAF0E0149165
:10113000112399F081110E94AB00E12FF0E0EE0F36
:10114000FF1FE859FF4FA591B4918C91082391E0BE
:1011500080E009F490E0292E382EB101F1E06F27EC
:1011600087E00E94D400809179026091C4028430AB
:1011700008F460E086E00E94D40000E010E0012B5B
:1011800009F4F7CC0E94C301882309F4F2CC0E9431
:101190000000EFCC46E0B4123FC09091380180913E
:1011A0003301981334C084E00E94A90220913C01CD
:1011B00030913D013227232732272817390709F0BC
:1011C000FEC180913901813409F0F9C180913A0161
:1011D000803B21F083E00E94C50219C080913B0151
:1011E0008730C1F710923A0110923B0184E00E94CF
:1011F000A90290933C0180933D0186E00E94660223
:10120000E0913101F0913201309709F00995809118
:1012100034019091350106CD56E05B1508F0CAC146
:1012200080913801882309F479C010923001A09090
:1012300033018A1521F080913001882341F30B2D71
:1012400010E08EEF8B0D0E94A9029801285C3E4FA2
:10125000F9013297408121503109D9012C91342F65
:101260002817390709F0ABC1E0913901E0932F014C
:1012700020913A0130913B01322723273227809178
:101280003C0190913D0198278927982760913C0166
:10129000AC01420F531FB0903001B110EAC1E130F0
:1012A00009F06BC060912D0170912E012617370750
:1012B00008F072C16417750708F48CCF8830910567
:1012C00088F5E0932C01A22F90E080E06A2F70E077
:1012D00064177507B0F56F537D4FFB0130813323E1
:1012E000B1F0E92FF0E0EF5DFE4F608193018201E4
:1012F000082E04C0000F111F221F331F0A94D2F7BB
:101300000B831C832D833E83302F362B30838F5FDE
:10131000883010F09F5F80E0AF5FD8CF91E090936E
:10132000300185CFBC01E3E076956795EA95E1F75A
:1013300087709927892B19F460932C01C4CF6F5FB4
:10134000FBCFA0932B0180912C0115E0180FA092E8
:10135000380180933A01E1E2F1E04BE351E08B1573
:1013600009F4EBC09191DA019D93AD019F012150E9
:101370003109D9011C92B394F2CFE23009F068C070
:1013800060911F01709120012617370708F004C1F2
:101390006417750708F41ECF8830910570F5F1E0E9
:1013A000F0932C01A22F90E080E06A2F70E0641788
:1013B000750790F567537D4FFB0130813323B1F002
:1013C000E92FF0E0EF5DFE4F608193018201082E6E
:1013D00004C0000F111F221F331F0A94D2F70B8382
:1013E0001C832D833E83302F362B30838F5F8830D4
:1013F00010F09F5F80E0AF5FD8CFBC0133E07695FF
:1014000067953A95E1F787709927892B19F46093CE
:101410002C01C8CF6F5FFBCFA0932B0180912C01D3
:1014200015E0180FA092380180933A01E1E2F1E053
:101430004BE351E08B1509F480C09191DA019D9343
:10144000AD019F0121503109D9011C92B394F2CF13
:10145000E33009F041C060911D0170911E01261713
:10146000370708F099C06417750708F4B3CE880FE2
:1014700080932C0115E0180FA092380180933A0157
:10148000A22FB0E0A417B507A8F4AA0FBB1FA1585C
:10149000BD4F9C9111963C91AE2FB0E0A85CBE4F21
:1014A0003C93A1E0AE0FB0E0A85CBE4F9C93EE5F12
:1014B0002F5FE6CF8D5F0E94A902212F30E0285CCC
:1014C0003E4FF9013297908321503109D9018C9315
:1014D000812F0E9466029BCEE430F1F560911B01E2
:1014E00070911C012617370708F056C0641775075E
:1014F00008F470CE880F80932C0115E0180FA0928D
:10150000380180933A0193E0E22FF0E0E417F50709
:10151000A0F4EE0FFF1FEF55FD4F30816181E92FE1
:10152000F0E0E85CFE4F6083E1E0E90FF0E0E85CAA
:10153000FE4F30839E5F2F5FE7CF8D5F0E94A90231
:10154000212F30E0285C3E4FF901329790832150E3
:101550003109F9018083BCCFE53009F070C080917A
:101560002D0190912E0128173907B0F4F901EF539E
:10157000FD4F6F3F21F401E0008388E0AACF108285
:10158000FCCFEF3009F077C080912D0190912E01B2
:101590002817390708F465C082E01DCE86E00E9456
:1015A000A90290933E0180933F01B11030CEE5CF68
:1015B00081E011CE8FEF8B0D853008F028CE809121
:1015C0003401909135010196909335018093340157
:1015D0001ECE80E090E078CBC501B401905821EE9A
:1015E0003AE744E15FE38FCC1092BC011092BD0159
:1015F0001092BE011092BF0199CCC501B401905860
:1016000021EE3AE744E15FE3EACC1092C001109288
:10161000C1011092C2011092C301F4CCC501B40102
:10162000905821EE3AE744E15FE345CD1092C401C2
:101630001092C5011092C6011092C7014FCDE6303D
:1016400009F09FCF40911D0150911E0124173507CD
:1016500008F0A2CF220F331FF901E158FD4F91830B
:10166000808386E00E94A90290933E0180933F010F
:1016700084CFE63039F3E03109F09ACF80913E0112
:10168000095011098017110609F099CF80911D01A9
:1016900090911E012817390708F07ECF841795070F
:1016A00008F498CD37E0822F90E08417950708F072
:1016B00075CFA32FB0E0880F991FFC01E158FD4FB3
:1016C000A85CBE4F8C9111969C91892798278927F9
:1016D000918380833E5F2F5FE6CFF999FECF92BD65
:1016E00081BDF89A992780B50895262FF999FECFE4
:1016F0001FBA92BD81BD20BD0FB6F894FA9AF99A2F
:101700000FBE01960895EE0FFF1F0590F491E02D96
:1017100009945058BB27AA270E94A10B0C94140DC2
:101720000E94060D38F00E940D0D20F039F49F3F05
:1017300019F426F40C94030D0EF4E095E7FB0C94D9
:10174000FD0CE92F0E94250D58F3BA1762077307A5
:101750008407950720F079F4A6F50C94470D0EF454
:10176000E0950B2EBA2FA02D0B01B90190010C01B1
:10177000CA01A0011124FF27591B99F0593F50F4C9
:10178000503E68F11A16F040A22F232F342F442721
:10179000585FF3CF469537952795A795F040539519
:1017A000C9F77EF41F16BA0B620B730B840BBAF0E9
:1017B0009150A1F0FF0FBB1F661F771F881FC2F754
:1017C0000EC0BA0F621F731F841F48F48795779568
:1017D0006795B795F7959E3F08F0B0CF9395880F22
:1017E00008F09927EE0F9795879508950E94D90CD8
:1017F00008F481E008950E940F0C0C94140D0E94CF
:101800000D0D58F00E94060D40F029F45F3F29F0BD
:101810000C94FD0C51110C94480D0C94030D0E9476
:10182000250D68F39923B1F3552391F3951B550BBF
:10183000BB27AA2762177307840738F09F5F5F4FA3
:10184000220F331F441FAA1FA9F335D00E2E3AF0E2
:10185000E0E832D091505040E695001CCAF72BD0FA
:10186000FE2F29D0660F771F881FBB1F261737074B
:101870004807AB07B0E809F0BB0B802DBF01FF277D
:1018800093585F4F3AF09E3F510578F00C94FD0C51
:101890000C94480D5F3FE4F3983ED4F3869577951A
:1018A0006795B795F7959F5FC9F7880F911D969536
:1018B000879597F90895E1E0660F771F881FBB1F92
:1018C000621773078407BA0720F0621B730B840B3F
:1018D000BA0BEE1F88F7E09508950E942D0D88F051
:1018E0009F5798F0B92F9927B751B0F0E1F0660FE4
:1018F000771F881F991F1AF0BA95C9F714C0B13025
:1019000091F00E94470DB1E008950C94470D672FA8
:10191000782F8827B85F39F0B93FCCF38695779553
:101920006795B395D9F73EF490958095709561953C
:101930007F4F8F4F9F4F0895E89409C097FB3EF467
:1019400090958095709561957F4F8F4F9F4F99230C
:10195000A9F0F92F96E9BB279395F695879577958A
:101960006795B795F111F8CFFAF4BB0F11F460FF4A
:101970001BC06F5F7F4F8F4F9F4F16C0882311F0A2
:1019800096E911C0772321F09EE8872F762F05C0B6
:10199000662371F096E8862F70E060E02AF09A9551
:1019A000660F771F881FDAF7880F9695879597F946
:1019B0000895990F0008550FAA0BE0E8FEEF1616E0
:1019C0001706E807F907C0F012161306E407F50733
:1019D00098F0621B730B840B950B39F40A2661F0A7
:1019E000232B242B252B21F408950A2609F4A1404A
:1019F000A6958FEF811D811D089597F99F6780E857
:101A000070E060E008959FEF80EC089500240A9450
:101A10001616170618060906089500240A941216C9
:101A20001306140605060895092E0394000C11F4FC
:101A3000882352F0BB0F40F4BF2B11F460FF04C0A9
:101A40006F5F7F4F8F4F9F4F089557FD9058440F02
:101A5000551F59F05F3F71F04795880F97FB991F0D
:101A600061F09F3F79F087950895121613061406CA
:101A7000551FF2CF4695F1DF08C016161706180657
:101A8000991FF1CF86957105610508940895E89432
:101A9000BB2766277727CB0197F908950E94D90CB9
:101AA00008F48FEF08950E94660D0C94140D0E94A7
:101AB000060D38F00E940D0D20F0952311F00C94C6
:101AC000FD0C0C94030D11240C94480D0E94250D5F
:101AD00070F3959FC1F3950F50E0551F629FF00181
:101AE000729FBB27F00DB11D639FAA27F00DB11D9A
:101AF000AA1F649F6627B00DA11D661F829F222723
:101B0000B00DA11D621F739FB00DA11D621F839FA9
:101B1000A00D611D221F749F3327A00D611D231F7F
:101B2000849F600D211D822F762F6A2F11249F57CD
:101B300050409AF0F1F088234AF0EE0FFF1FBB1FD0
:101B4000661F771F881F91505040A9F79E3F51058F
:101B500080F00C94FD0C0C94480D5F3FE4F3983E2C
:101B6000D4F3869577956795B795F795E7959F5F39
:101B7000C1F7FE2B880F911D9695879597F90895CB
:041B8000F894FFCF07
:101B8400D901020000000000F90159018601460252
:061B9400B7019501A90153
:00000001FF
